:1000000010C017C017C015C014C013C012C011C053
:1000100010C00FC00EC00DC00CC00BC00AC009C07C
:1000200008C011241FBECFE5D2E0DEBFCDBF0CD08B
:100030004DC1E6CF1F920F920FB60F9211240F9071
:100040000FBE0F901F9018951FD019D162B370E0AA
:1000500043E050E084E090E07DD05AD062B370E09D
:1000600043E050E084E090E0D7D061D0B0D066D0DB
:100070008823A1F304D162B370E043E050E084E050
:1000800090E068D045D0EACFCF93DF93CDB7DEB70D
:100090002C970FB6F894DEBF0FBECDBF15BE85B747
:1000A0008F7D85BF8AB390E09C878B878B8584602A
:1000B0008B878AB390E09A87898789858260898750
:1000C0008AB390E098878F838F8181608F838AB312
:1000D00090E09E838D838D81887F8D838BB390E0AC
:1000E0009C838B838B8184608B838FEF8150F1F7AE
:1000F0008BB390E09A83898389818C7F89832C9646
:100100000FB6F894DEBF0FBECDBFDF91CF9108953B
:1001100085B7877E806185BF85B7806285BF85B7DB
:10012000806285BF889585B78F7D85BF089589ECEE
:100130009FEA01970097E9F781E0089589EC9FEA2B
:1001400003C00197009721F0DB9BFBCF80E008956F
:1001500081E00895CF93DF93CDB7DEB728970FB630
:10016000F894DEBF0FBECDBF2FB730E038872F83A6
:100170009F8190789F837E836D839D8121E030E015
:10018000B90102C0660F771F4A95E2F7AB01492B10
:100190004D834BB750E05C834B834B81B90102C068
:1001A000660F771F8A95E2F7CB01842B8B838FB77D
:1001B00090E09A83898389818068898328960FB625
:1001C000F894DEBF0FBECDBFDF91CF910895CF93DE
:1001D000DF9300D000D000D0CDB7DEB78BB390E076
:1001E0009E838D838D8182608D838BB390E09C8311
:1001F0008B838B8184608B838BB390E09A8389831C
:1002000089818160898326960FB6F894DEBF0FBE80
:10021000CDBFDF91CF910895CF93DF9300D000D071
:1002200000D0CDB7DEB7EFB7F0E0FE83ED839D8160
:1002300090789D83EBB7F0E0FC83EB835B8121E05A
:1002400030E0F90102C0EE0FFF1F8A95E2F7CF01FF
:10025000819558235B837A836983898102C0220F49
:10026000331F4A95E2F721952823298326960FB656
:10027000F894DEBF0FBECDBFDF91CF910895CF932D
:10028000DF9300D000D000D0CDB7DEB78BB390E0C5
:100290009E838D838D818E7F8D838BB390E09C8335
:1002A0008B838B818C7F8B838BB390E09A83898344
:1002B0008981898386B1807886B926960FB6F894AD
:1002C000DEBF0FBECDBFDF91CF910895F894FFCF71
:00000001FF
