:1000000010C017C017C015C014C013C012C011C053
:1000100010C00FC00EC00DC00CC00BC00AC009C07C
:1000200008C011241FBECFE5D2E0DEBFCDBF13D084
:100030007FC0E6CF1F920F920FB60F9211240F9040
:100040000FBE0F901F90189589B383FB882780F906
:1000500091E08927089521D066D051D02ED05AD072
:100060003BD03AD039D038D037D036D04FD034D03A
:1000700033D032D031D030D02FD0E6DF8111FDCF58
:100080002BD02AD029D02FD0882349F34CD024D08C
:1000900023D022D034D011D0E2CF15BE85B78F7DCA
:1000A00085BFD19AD29AD09AD398D99A88ED96EDF5
:1000B00001970097E9F7D998089585B7877E806101
:1000C00085BF85B7806285BF85B7806285BF88950B
:1000D00085B78F7D85BF089589ED96ED01970097CF
:1000E000E9F781E0089589ED96ED03C00197009747
:1000F00021F0CB9BFBCF80E0089581E00895F89438
:10010000939A8BB780618BBF78940895DA9AD99AC5
:10011000D89A0895F8948FB78F778FBF8BB78F7E5B
:100120008BBF93980895DA98D998D89837980895FE
:04013000F894FFCF71
:00000001FF
