:1000000010C01FC01FC01DC01CC01BC01AC019C01B
:1000100018C017C016C015C014C013C012C011C03C
:1000200010C011241FBECFE5D2E0DEBFCDBF20E05F
:10003000A0E6B0E001C01D92A336B207E1F71CD0E4
:1000400055C0DECF1F920F920FB60F9211248F93DF
:10005000CB9904C080916200811104C081E080933B
:10006000620004C08BB387708BBBF8CF8F910F9069
:100070000FBE0F901F90189515BEF8948AB3876035
:100080008ABB8AB38ABB8BB387608BBBF894109210
:10009000610010926000939A8BB780618BBF789457
:1000A000CB9905C080916200811105C00AC0809182
:1000B00062008823A9F38BB387708BBB1092620018
:1000C000EFCF10926100109260008BB31BBA85B71E
:1000D000877E806185BF85B7806285BF85B7806276
:1000E00085BF889585B78F7D85BFE1CFF894FFCF19
:00000001FF
