:1000000010C01FC01FC01DC01CC01BC01AC019C01B
:1000100018C017C016C015C014C013C012C011C03C
:1000200010C011241FBECFE5D2E0DEBFCDBF20E05F
:10003000A0E6B0E001C01D92A336B207E1F719D0E7
:100040008EC0DECF1F920F920FB60F9211248F93A6
:10005000CB9909C080916200882329F08BB3876017
:100060008BBB109262008F910F900FBE0F901F906C
:10007000189515BEF8948AB387608ABB8AB38ABB89
:100080008BB387608BBB38EE23E061E050E84FE034
:10009000CB9914C080916200811110C02AC0CB9B03
:1000A00003C058C0CB9956C00196909361008093CD
:1000B00060008C3271E09707A9F723C0832F922F3D
:1000C00001970097E9F780916200882371F085B766
:1000D000877E85BF85B7806285BF85B7806285BF13
:1000E000889585B78F7D85BFD3CF8BB387608BBB5A
:1000F000CFCF80916000909161008C3271E09707C2
:1001000070F210926100109260008BB31BBA609382
:100110006200F8941092610010926000939A8BB77D
:1001200080618BBF789485B7806485BF58B940B92A
:1001300086B1807886B985B7877E85BF85B78062AE
:1001400085BF85B7806285BF889585B78F7D85BF60
:10015000379AB4CF109261001092600099CFF89452
:02016000FFCFCF
:00000001FF
