S017000044756D705465737441707074696E792E73726563F2
S113000010C02AC06FC028C027C026C025C024C085
S113001023C022C021C020C01FC01EC01DC01CC0E0
S11300201BC011241FBECFE5D2E0DEBFCDBF10E060
S1130030A0E6B0E0E0E0F2E002C005900D92A23646
S1130040B107D9F720E0A2E6B0E001C01D92A736BF
S1130050B207E1F76AD0D2C0D3CFCB9903C081E015
S113006080936300CB992BC08091630081112AC0D7
S113007026C00196893C2FEA9207D8F380E090E0ED
S11300800196893C2FEA9207D8F3909365008093F8
S11300906400109262008AB387608ABB8AB38ABB09
S11300A08BB387608BBB80E090E00196893C2FEA9C
S11300B09207D8F39093650080936400089510929A
S11300C066000895F8948BB78BBF82B382BB81E03E
S11300D0809362001092600010926300DA9A80E0CC
S11300E090E0C7CF1F920F920FB60F9211242F9357
S11300F03F934F935F936F937F938F939F93AF93AC
S1130100BF93EF93FF93A9DFFF91EF91BF91AF915D
S11301109F918F917F916F915F914F913F912F911B
S11301200F900FBE0F901F90189515BE88E10FB663
S1130130F89481BD11BC0FBE8AB387608ABB8AB3B1
S11301408ABB8BB387608BBB60E050E0362F252FD2
S113015041E0E0E87FE0832F922F0196893CFFEA9B
S11301609F07D8F3409360003093640020936500A8
S1130170CB99F1CF10926200D9980CC080916400A1
S11301809091650001969093650080936400893C8A
S11301909F4A30F4CB9BF2CF80916600882351F1C3
S11301A06093640050936500109266008BB31BBA91
S11301B0F894939A8BB780618BBF78941092600007
S11301C01092620085B7806485BFE8B986B18078F3
S11301D086B970B985B7877E806185BF85B780622F
S11301E085BF85B7806285BF889585B78F7D85BFBC
S11301F089B3B1CF8BB387608BBBADCFF894FFCFFE
S10502000100F7
S9030000FC
